:020000040000fa
:080000000002040000000000f2
:020000040000fa
:0400080042050000ad
:020000040000fa
:04000c0042050000a9
:020000040000fa
:0400100042050000a5
:020000040000fa
:0400140042050000a1
:020000040000fa
:04001800420500009d
:020000040000fa
:04001c004205000099
:020000040000fa
:040020004205000095
:020000040000fa
:040024004205000091
:020000040000fa
:04002800420500008d
:020000040000fa
:04002c004205000089
:020000040000fa
:040030004205000085
:020000040000fa
:040034004205000081
:020000040000fa
:04003800420500007d
:020000040000fa
:04003c004205000079
:020000040000fa
:040040004205000075
:020000040000fa
:040044004205000071
:020000040000fa
:04004800420500006d
:020000040000fa
:04004c004205000069
:020000040000fa
:040050004205000065
:020000040000fa
:040054003a0300006b
:020000040000fa
:04005800420500005d
:020000040000fa
:04005c004205000059
:020000040000fa
:040060004205000055
:020000040000fa
:040064004205000051
:020000040000fa
:04006800420500004d
:020000040000fa
:04006c004205000049
:020000040000fa
:040070004205000045
:020000040000fa
:040074004205000041
:020000040000fa
:04007800420500003d
:020000040000fa
:04007c004205000039
:020000040000fa
:040080004205000035
:020000040000fa
:040084004205000031
:020000040000fa
:04008800420500002d
:020000040000fa
:04008c004205000029
:020000040000fa
:040090004205000025
:020000040000fa
:040094004205000021
:020000040000fa
:04009800260400003a
:020000040000fa
:04009c004205000019
:020000040000fa
:0400a0004205000015
:020000040000fa
:0400a4004205000011
:020000040000fa
:0400a800420500000d
:020000040000fa
:0400ac004205000009
:020000040000fa
:0400b0004205000005
:020000040000fa
:0400b4004205000001
:020000040000fa
:0400b80042050000fd
:020000040000fa
:0400bc0042050000f9
:020000040000fa
:0400c00042050000f5
:020000040000fa
:0400c40042050000f1
:020000040000fa
:0400c80042050000ed
:020000040000fa
:0400cc0042050000e9
:020000040000fa
:0400d00042050000e5
:020000040000fa
:0400d40042050000e1
:020000040000fa
:0400d80042050000dd
:020000040000fa
:0400dc0042050000d9
:020000040000fa
:0400e00042050000d5
:020000040000fa
:0400e40042050000d1
:020000040000fa
:0400e80042050000cd
:020000040000fa
:0400ec0042050000c9
:020000040000fa
:0400f00042050000c5
:020000040000fa
:0400f40042050000c1
:020000040000fa
:0400f80042050000bd
:020000040000fa
:0400fc0042050000b9
:020000040000fa
:0401000042050000b4
:020000040000fa
:0401040042050000b0
:020000040000fa
:0401080042050000ac
:020000040000fa
:04010c0042050000a8
:020000040000fa
:0401100042050000a4
:020000040000fa
:0401140042050000a0
:020000040000fa
:04011800420500009c
:020000040000fa
:04011c004205000098
:020000040000fa
:040120004205000094
:020000040000fa
:040124004205000090
:020000040000fa
:04012800420500008c
:020000040000fa
:04012c004205000088
:020000040000fa
:040130004205000084
:020000040000fa
:040134004205000080
:020000040000fa
:04013800420500007c
:020000040000fa
:04013c004205000078
:020000040000fa
:040140004205000074
:020000040000fa
:040144004205000070
:020000040000fa
:04014800420500006c
:020000040000fa
:04014c004205000068
:020000040000fa
:040150004205000064
:020000040000fa
:040154004205000060
:020000040000fa
:04015800420500005c
:020000040000fa
:04015c004205000058
:020000040000fa
:040160004205000054
:020000040000fa
:040164004205000050
:020000040000fa
:04016800420500004c
:020000040000fa
:04016c004205000048
:020000040000fa
:040170004205000044
:020000040000fa
:040174004205000040
:020000040000fa
:04017800420500003c
:020000040000fa
:04017c004205000038
:020000040000fa
:040180004205000034
:020000040000fa
:040184004205000030
:020000040000fa
:04018800420500002c
:020000040000fa
:04018c004205000028
:020000040000fa
:040190004205000024
:020000040000fa
:040194004205000020
:020000040000fa
:04019800420500001c
:020000040000fa
:04019c004205000018
:020000040000fa
:0401a0004205000014
:020000040000fa
:0401a4004205000010
:020000040000fa
:0401a800420500000c
:020000040000fa
:0401ac004205000008
:020000040000fa
:0401b0004205000004
:020000040000fa
:0401b4004205000000
:020000040000fa
:0401b80042050000fc
:020000040000fa
:0401bc0042050000f8
:020000040000fa
:0401c00042050000f4
:020000040000fa
:0401c40042050000f0
:020000040000fa
:0401c80042050000ec
:020000040000fa
:0401cc0042050000e8
:020000040000fa
:0401d00042050000e4
:020000040000fa
:0401d40042050000e0
:020000040000fa
:0401d80042050000dc
:020000040000fa
:0401dc0042050000d8
:020000040000fa
:0401e00042050000d4
:020000040000fa
:0401e40042050000d0
:020000040000fa
:0401e80042050000cc
:020000040000fa
:0401ec0042050000c8
:020000040000fa
:0401f00042050000c4
:020000040000fa
:0401f40042050000c0
:020000040000fa
:0401f80042050000bc
:020000040000fa
:0401fc0042050000b8
:020000040000fa
:0402000042050000b3
:020000040000fa
:0402040042050000af
:020000040000fa
:0402080042050000ab
:020000040000fa
:04020c0042050000a7
:020000040000fa
:0402100042050000a3
:020000040000fa
:04021400420500009f
:020000040000fa
:04021800420500009b
:020000040000fa
:04021c004205000097
:020000040000fa
:040220004205000093
:020000040000fa
:04022400420500008f
:020000040000fa
:04022800420500008b
:020000040000fa
:04022c004205000087
:020000040000fa
:040230004205000083
:020000040000fa
:04023400420500007f
:020000040000fa
:04023800420500007b
:020000040000fa
:04023c004205000077
:020000040000fa
:040240004205000073
:020000040000fa
:04024400420500006f
:020000040000fa
:04024800420500006b
:020000040000fa
:04024c004205000067
:020000040000fa
:040250004205000063
:020000040000fa
:04025400420500005f
:020000040000fa
:04025800420500005b
:020000040000fa
:04025c004205000057
:020000040000fa
:040260004205000053
:020000040000fa
:04026400420500004f
:020000040000fa
:04026800420500004b
:020000040000fa
:04026c004205000047
:020000040000fa
:040270004205000043
:020000040000fa
:04027400420500003f
:020000040000fa
:04027800420500003b
:020000040000fa
:04027c004205000037
:020000040000fa
:040280004205000033
:020000040000fa
:100400000f0321000eff26000e01880000000000ef
:10041000000020000000e000020032000001200087
:100420002002880014000700980107000000e00087
:1004300003003a0080e121000100200002003700a3
:100440000000200001002000810f70000100320038
:100450000f000700000020000000e0000200320052
:100460000000020000000000e41a0200000000008a
:100470000040da000000fe00801520000000e000cf
:1004800002003200002020009001880000000600d9
:10049000a1028800800478000000eb001f003700f4
:1004a000e284440054a0b4009905ba00e2844400f8
:1004b00054a0b4009906ba00e284440054a0b400e9
:1004c0000006eb00476fde00fd07b200ae018800ba
:1004d000636ce10003003a000ad801000000eb0061
:1004e0000e003700606ce10008003a00004deb00a0
:1004f0000a05e800020039003420ec000af0a000f0
:100500008b05e900f9ff3e00040037006168e10057
:10051000010032000086eb000b00070019c7ba008b
:100520000e04e0001905ba0003003a000a00e000da
:10053000dbff3a0000000600fe07b200ae028800b2
:100540008a047800f5ff37000cd0a300e20f4d00bd
:100550001c00390089027800354dba000a05e80010
:10056000020039003420ec000af0a0008b05e900fd
:100570000f003200254dba000a05e80002003900dc
:100580003420ec000af0a0008b05e90008003200de
:100590000c00e0000600320015cdba000a05e800a4
:1005a000020039003420ec000af0a0008b05e900bd
:1005b0008984e80054a0b4000b00e000e2ff3a0098
:1005c000000006009902ba00055d78008b05e9007d
:1005d000f7ff3200c82ade00055d78008b05e900d0
:1005e000f3ff32000c00e000f1ff320019ddba0029
:1005f000eeff3700320f0400000000003e0e040042
:10060000000000001c0f0400000000004a0e04005f
:1006100000000000da0c04000000000002100400da
:1006200000000000da0f040000000000040f0400c6
:10063000000000006e0d0400000000007a110400ac
:1006400000000000e011040000000000fa110400a6
:1006500000000000cc110400000000008211040022
:100660000000000016120400000000002412040024
:10067000000000003600f800809fbe00829fbe0090
:10068000849fbe00869fbe00889fbe008a1f7800a0
:100690003200f8003400f80010002000a0018800ab
:1006a0000020200090018800000000004600f800b3
:1006b0003200f8003400f8000200fa004620ef0093
:1006c00040808000a0018800508080009001880058
:1006d000408180000000e00042003a00108180006c
:1006e0003802800099018000aa01800005070700f8
:1006f000aa0188009901880038028800004f78001c
:1007000050c2b3009e40780080cf50000b003a00ea
:10071000408180009e40780002492700000041008f
:1007200001487800408180000000e8004081880096
:1007300010002000508188002b0037000168a900bc
:10074000340037004181800010032000808f50006a
:1007500009003a003802800099018000aa01800057
:100760000e0c0700aa018800990188003802880051
:100770000168a9002700370010818000380280003e
:1007800099018000aa018000de060700aa01880006
:100790009901880038028800004f7800408180006d
:1007a0009e4078000249270000004100014878007f
:1007b000408180000000e8004081880050c2b30002
:1007c0009e40780080cf500007003a0020002000b3
:1007d00050818800408180000000e900408188004d
:1007e0000100370000000000108180003802800006
:1007f00099018000aa018000f1060700aa01880083
:1008000099018800380288000004e000cdff3a001a
:100810000168a9000080fa003400f9003200f900f4
:100820004600f9003400f9003200f9004f05780065
:100830004f04be004f03be004f02be004f01be007a
:100840004f00be003600f900004006003600f800f8
:10085000809fbe00829fbe00849fbe00869fbe0018
:10086000889fbe008a9fbe003200f8003400f80066
:1008700010002000a00188000020200090018800c6
:10088000000000004600f8003200f8003400f800d4
:100890000200fa001821ef004620ef00408080009f
:1008a000a0018800508080009001880010808000a6
:1008b0000000e800108088002080800031808000e7
:1008c00061004000e080480020808800318088007e
:1008d00050818000e10f500003003a00008080004a
:1008e0000000e800008088000180800040062000b1
:1008f000808f500009003a000030ef00380280007d
:1009000099018000aa018000a40b0700aa018800b9
:1009100099018800380288000100370000000000bb
:1009200000198000610060000000e000fcff320060
:100930001119800000082000008060000000e00025
:100940000900320000188000908088001018800094
:100950008080880020188000a080880030188000e7
:10096000b0808800080037008018800090808800e0
:100970009018800080808800a0188000a0808800e7
:10098000b0188000b080880070808000214c270063
:10099000008440000e007800390280009a01800037
:1009a000ab018000b00a0700ab0188009a01880003
:1009b000390288001e4c78000dd0bf0080407800be
:1009c000204c27003802800099018000aa01800095
:1009d000430a0700aa0188009901880038028800ac
:1009e0000df0b700708080000000e8007080880083
:1009f00070808000e60f500001003a000e30ef00da
:100a00000dd0bf00614060000004e0000d00320026
:100a10000cd0bf00614060000004e00007003a0015
:100a2000a0708000640060000000e00002003a0056
:100a3000144ea80001003700144ea9000c10a800a5
:100a4000010037000c10a9000388a9000080fa00fb
:100a50003400f9003200f9004600f9003400f900d2
:100a60003200f9004f05be004f04be004f03be0028
:100a70004f02be004f01be004f00be003600f9001d
:100a8000004006000040da000000fe000000050003
:100a90006022b800060220000000d0008180d20051
:100aa0000482d2008582d2000000a000020252001f
:100ab00083825a00030031000202420083824a000e
:100ac0000000a1000603e900f3ff3a000000060061
:100ad0008001780002003700815978000201e900a6
:100ae0000200e000fcff3a000000060080007800f1
:100af000010178003104e000fdff3a0000005100e0
:040b000000000600eb
:020000040000fa
:100b0400415400002b55000041520000543f0000a6
:100b1400002b000055410000525400003d340000f9
:100b24003630000038300000302c0000302c00003b
:100b340030000000415400002b55000041520000d9
:100b4400543d0000343600003038000030300000de
:100b54002c3000002c30000000410000542b000019
:100b64004e4100004d4500003f0000002b4e0000a8
:100b7400414d0000453a000050430000485a00002f
:100b8400532d00004453000050490000433300003b
:100b940033000000415400002b4e0000414d000082
:100ba400453d000050430000485a0000532d00000a
:100bb4004453000050490000433300003300000058
:100bc400415400002b200000505300005744000003
:100bd4003f0000002b50000053570000443a00002f
:100be400313200003334000000410000542b000077
:100bf40050530000574400003d31000032330000e0
:100c040034000000415400002b5200004553000002
:100c1400455400000000000052450000414400001b
:100c24005f5a0000535f0000454e0000440000007e
:100c34005f430000414e00005f4f00004c44000041
:100c4400005f0000434100004e5f00004e4500007d
:100c5400570000005f450000525200004f52000050
:100c64005f5000004f570000455200005f440000f1
:100c74004556000049430000455f00000052000053
:100c840045530000455400005f500000524f0000df
:100c940054450000435400005f53000054410000d9
:100ca400544500005f4500004e440000005f000012
:100cb4004e4f00005f44000041540000410000001a
:100cc4005741000049540000494e0000472e0000df
:100cd4002e2e00002000000000010000020300008e
:100ce40000010000020400000001000002050000f1
:100cf40000010000030400000001000003050000df
:100d040000010000040500000002000003040000cc
:100d140000020000030500000002000004050000ba
:100d240000030000040500000102000003040000a9
:100d34000102000003050000010200000405000098
:100d44000103000004050000020300000405000084
:100d54002552000045410000445f0000505200004d
:100d64004f54000045430000545f000053540000fa
:100d740041540000452500000025000052450000b4
:100d84004d4f0000565f0000505200004f540000c9
:100d940045430000545f00005354000041540000d8
:100da4004525000000000000580200000800000073
:020000040000fa
:100db4001a00fa00889fbe008a9fbe008c9fbe0066
:100dc400300798004107980052079800630798007d
:100dd40074079800050f98003e009000c500dd00e0
:100de40000452700008f40001e0078008040eb0083
:100df400215098001e0078008000eb002108980024
:100e04001e007800fe009000510898001e00780033
:100e140021f32000410098001e007800e1e3200047
:100e2400110098001e007800c1f1200031009800e4
:100e34001e007800a1e42000210098001e00780024
:100e4400a1cd2000010878001e00780021002100b7
:100e5400610098001e007800a1fd20007100980038
:100e64001e00780041f02000510098001e00780018
:100e7400e1d62000010898003e0090000000e00048
:100e840003003200e10f5000bf0032007701370049
:100e94001e007800014020006108980014cea900cb
:100ea40010cea90016cea800f1708000f0fb2f0030
:100eb40000806000f07088001acea9001ccea90042
:100ec40010aea8002134800000fc2f0000806000d8
:100ed400e000b30020348800a136800000f82f0021
:100ee400808060008004200001007000a03688002b
:100ef40001cba90001aba80001588000f0fc2f0031
:100f0400008060000050a000005888000158800054
:100f1400c0ff2f000080600000588800600420009b
:100f24001058880070002000705888002044200069
:100f340060588800000027008000eb00100798002c
:100f4400210798001e019000ae019000f0ff2700d9
:100f5400010020000202780003017800800178007b
:100f64000100780003026200000061008000eb00d1
:100f7400c000dd00000020000001be006120b800b8
:100f84000001710081817100120798002307980005
:100f9400000020004f00dd008000eb001e019000e7
:100fa400ae019000020040008380480010079800c2
:100fb400210798001e009000205888001e00900011
:100fc400ae0090004008de00000078003058880031
:100fd40001eba80011cba90011aba9008158800036
:100fe400f0fc2f00008060000050a00080588800b2
:100ff40081588000c0ff2f00008060008058880066
:10100400200220009058880070002000f0588800ca
:1010140000442000e0588800000027008000eb0016
:1010240010079800210798001e019000ae0190005f
:10103400f0ff27000100200002027800030178007d
:101044008001780001007800030262000000610062
:101054008000eb00c000dd00000020000001be00a5
:101064006120b800000171008181710012079800ad
:1010740023079800000020004f00dd008000eb00f3
:101084001e019000ae0190000200400083804800e1
:1010940010079800210798001e009000a0588800af
:1010a4001e009000ae0090004008de0000007800b2
:1010b400b058880011eba8004e009000c201dd007a
:1010c40002002700120f980001002000210f980051
:1010d4001e089000ae089000a20180000102780072
:1010e40000007800a401880003087800a2018800a9
:1010f40002002700320f980001002000410f9800e1
:101104008001eb003e089000ce08900000017800ba
:101114002000b000000169004260af0000f0a000b0
:101124000281d2000180b000a20180000102780097
:1011340000007800a401880003087800a201880058
:101144000c0027000d002000fe0190000c00be00e2
:10115400000178004000b000000169004260af0067
:1011640000f0a0000281d2000180b000a201800042
:101174000102780000007800a401880003087800c8
:10118400a2018800b90037001e0078000150200039
:101194006108980014eea90010eea90016eea8004c
:1011a400f1708000f0f72f0000806000f07088007c
:1011b4001aeea9001ceea90010aea800213480008c
:1011c400f00f2c008080600000f02000010070000f
:1011d40020348800a1368000f00f28008080600051
:1011e4000050220001007000a036880021cba90025
:1011f40021aba80001598000f0fc2f0000806000a2
:101204000050a0000059880001598000c0ff2f0041
:101214000080600000598800700420001059880084
:101224007000200070598800205420006059880004
:10123400002027008000eb00100798002107980089
:101244001e019000ae019000f0ff27000100200075
:101254000202780003017800800178000100780020
:1012640003026200000061008000eb00c000dd00aa
:10127400000020000001be006120b80000017100e0
:101284008181710012079800230798000000200054
:101294004f00dd008000eb001e019000ae019000c5
:1012a400020040008380480010079800210798003e
:1012b4001e009000205988001e009000ae0090008f
:1012c4004008de00000078003059880021eba800b7
:1012d40031cba90031aba90081598000f0fc2f006b
:1012e400008060000050a00080598800815980006f
:1012f400c0ff2f0000806000805988007003200028
:101304009059880070002000f05988000054200093
:10131400e0598800002027008000eb0010079800a7
:10132400210798001e019000ae019000f0ff2700f5
:101334000100200002027800030178008001780097
:101344000100780003026200000061008000eb00ed
:10135400c000dd00000020000001be006120b800d4
:101364000001710081817100120798002307980021
:10137400000020004f00dd008000eb001e01900003
:10138400ae019000020040008380480010079800de
:10139400210798001e009000a05988001e009000ac
:1013a400ae0090004008de0000007800b0598800cc
:1013b40031eba8004e009000c201dd000a20270096
:1013c4000b0020000a00be00a20180000102780088
:1013d40000007800a401880003087800a2018800b6
:1013e40008202700090020008001eb000800be004f
:1013f400000178002000b000000169004260af00e5
:1014040000f0a0000281d2000180b000a20180009f
:101414000102780000007800a40188000308780025
:10142400a20188000620270007002000fe0190008a
:101434000600be00000178004000b0000001690011
:101444004260af0000f0a0000281d2000180b00031
:10145400a20180000102780000007800a401880045
:1014640003087800a2018800000000001e00780034
:10147400ee00900041089800410020001e00780012
:10148400e50207000e089000e10f50009a003a00b0
:101494001e0078006008900010017800e1ff2f0022
:1014a40081006100010878001e0078006008900047
:1014b4009000780001d0a000010878001e00780098
:1014c400600890009000780001b0a0000108780046
:1014d4001e00780060089000900078000130a000a1
:1014e400010878001e007800600890000009900050
:1014f400f1f32f0081006100010898001e007800bc
:10150400600890000009900001fc2f008100610038
:101514007100b300010898001e0078006008900074
:101524001009900081ff2f008100610011089800cc
:101534001e007800600890001009900071fc2f00d4
:10154400810061000140a000110898001e0078008d
:101554006008900010099000f18f2f008100610055
:101564000190a000110898001e0078006008900007
:10157400900890000160a000110898001e007800f7
:1015840060089000900890000170a0001108980075
:101594001e0078006008900010099000f1ff2b00f5
:1015a40081006100110898001e0078006008900016
:1015b40030019000f1ff21000101610001002c00c5
:1015c40082807000310098001e007800600890004e
:1015d40040099000c1ff2f0081006100410898007c
:1015e4001e00780060089000900078000100a000c0
:1015f400010878001e007800600890005e019000e9
:10160400f17f200081006100c508dd000021900009
:101614007f01610082807000012098001e00780024
:10162400600890000021900071ff2f00810061008c
:10163400012098001e0078006008900001fc2f0033
:10164400011898001e00780060089000801890002f
:101654000130a000011898001e0078006008900076
:101664000011900001ff2f00810061000130a000f3
:10167400011098001e0078006008900010017800a6
:10168400e1ff2f0081006100010878001e0078004e
:1016940060089000a00890000100a00021089800b4
:1016a4001e0078006008900010017800e1ff2f0010
:1016b40081006100010878001e0078006008900035
:1016c400801890000170a000011898001e00780096
:1016d40060089000801890003100b3000118980051
:1016e4001e0078006008900010017800e1ff2f00d0
:1016f40081006100010878000e0890000000e000fd
:101704009c003a001e0078006008900010017800e8
:10171400e1ff2f0081006100010878001e007800bd
:10172400600890009000780001d0a00001087800c3
:101734001e007800600890009000780001b0a000be
:10174400010878001e00780060089000900078007e
:101754000130a000010878001e00780060089000a5
:1017640000099000f1f32f00810061000108980046
:101774001e007800600890000009900001fc2f0012
:10178400810061007100b300010898001e00780018
:10179400600890001009900081ff2f008100610013
:1017a4000100a000110898001e0078006008900055
:1017b4001009900071fc2f00810061000130a0002d
:1017c400110898001e00780060089000100990002d
:1017d400f18f2f00810061000180a00011089800a2
:1017e4001e0078006008900010099000f1fb2f00a3
:1017f40081006100110898001e00780060089000c4
:10180400900890000170a000110898001e00780054
:101814006008900010099000f1ff2b008100610026
:10182400110898001e0078006008900030019000b4
:10183400f1ff21000101610001002c008280700091
:10184400310098001e007800600890004009900064
:10185400c1ff2f0081006100410898001e0078003c
:1018640060089000900078000100a0000108780052
:101874001e007800600890005e019000f17f200057
:1018840081006100c508dd00002190007f01610036
:1018940082807000012098001e007800600890008b
:1018a4000021900071ff2f00810061000120980049
:1018b4001e0078006008900001fc2f0001189800b9
:1018c4001e00780060089000801890000130a0008d
:1018d400011898001e007800600890000011900024
:1018e40001ff2f00810061000130a0000110980069
:1018f4001e0078006008900010017800e1ff2f00be
:1019040081006100010878001e00780060089000e2
:10191400a00890000100a000210898001e00780093
:101924006008900010017800e1ff2f008100610041
:10193400010878001e00780060089000801890006c
:101944000170a000011898001e0078006008900043
:10195400801890003100b300011898001e00780030
:101964006008900010017800e1ff2f008100610001
:10197400010878001e00780040089000800078007c
:101984001e007800a40107001e0078006008900083
:101994008000eb00510098001e0078004f06be0046
:1019a4004f05be004f04be000080fa000000060090
:1019b4000c00fa003007980041079800520798007d
:1019c400be00900000452700808f50000c003a00b4
:1019d40006002700070020000600be000001780072
:1019e4006008b000000169004260af0000f0a00090
:1019f4000281d2000180b000008fbe000b003700ce
:101a040004202700050020000400be000001780027
:101a14006008b000000169004260af0000f0a0005f
:101a24000281d2000180b000008fbe000040eb00b4
:101a3400404798001c0037001e0078009e0090006c
:101a44009201800081017800930188000000000069
:101a540000007800904078009201880000000000a7
:101a64004e009000014878004e0090000000e8000d
:101a7400400798001e0078009e0090000001780046
:101a84001000b000000169004260af0000f0a00047
:101a94000281d2000180b000008fbe004e40900051
:101aa4000040e800404798004e4090008080fb00d2
:101ab4005e009000808f5000dfff39003e009000f0
:101ac4008040eb00215098003e00900050089000a8
:101ad4000080fa00000006000400fa00889fbe009f
:101ae400100798009e00900000452700808f50004a
:101af4002f003a000800270009002000920180000e
:101b04000800be00800178000008b00080816900f0
:101b14004260af0000f0a0008381d2000180b000d9
:101b24008101780093018800000000000000780023
:101b34001000780092018800000000004a00de00d6
:101b4400004078000080fb00000f78001e00780041
:101b54004801dd00060027000700200093018000f3
:101b64000600be00000278000008b00000026a000f
:101b74004260af0000f0a0000482d2000180b000f7
:101b84000102780094018800000000000000780041
:101b94001000780093018800000000004200de007d
:101ba400004078000080fb00000f71002e00370019
:101bb4000420270005002000960180000400be00d8
:101bc400000178000008b000000169004260af0025
:101bd40000f0a0000281d2000180b0000102780070
:101be40094018800000000000000780010007800d4
:101bf40096018800000000004a00de0000407800e2
:101c04000080fb00000f78001e0078004802dd0011
:101c14000220270003002000950180000200be007e
:101c2400000378000008b00000036b004260af00be
:101c340000f0a0000683d2000180b000010178000a
:101c44009201880000000000000078001000780075
:101c540095018800000000004200de00004078008a
:101c64000080fb00000f72001e0078004f04be00cd
:101c74000080fa00000006000200fa00000f78005d
:101c84001e007800205090000080fa00000006003a
:101c94000c00fa003007980041079800520798009a
:101ca400be00900000452700808f50000c003a00d1
:101cb40006002700070020000600be00000178008f
:101cc4006000b000000169004260af0000f0a000b5
:101cd4000281d2000180b000008fbe000b003700eb
:101ce40004202700050020000400be000001780045
:101cf4006000b000000169004260af0000f0a00085
:101d04000281d2000180b000008fbe000040eb00d1
:101d1400404798001a0037004e0090009041780028
:101d24001e0078009e009000a2018000010278004d
:101d340000007800a401880003487800a20188000c
:101d44001e0078009e009000000178001000b00092
:101d5400000169004260af0000f0a0000281d200df
:101d64000180b000008fbe004e0090000000e8002b
:101d7400400798004e4090000040e800404798001b
:101d84004e4090008080fb005e009000808f5000e9
:101d9400e1ff39003e0090000e0007000080fa00c9
:101da400000006000200fa00000f78001e00780010
:101db400600890009000780001c0a000010878003d
:101dc4001e0078008000eb00210898000080fa00d3
:101dd400000006000200fa00000f78001e007800e0
:101de40060089000801890000130a000011898004d
:101df4001e00780011002000210898000080fa00dd
:101e0400000006000600fa00000f78001107980091
:101e1400220798002e0190009e0090001e0078007a
:101e24009bff07001e007800eaff07000080fa000d
:101e3400000006000200fa00000f78001e0078007f
:101e44002008900000f0a7000000ea000000e9006c
:101e54004f00de00004078000080fa000000060019
:101e64000200fa00000f78001e0078009e0078003f
:101e7400e1089000d1009000310898001e0078001d
:101e8400b008900000002100008060000000e00025
:101e940006003a001e007800b008900000102000f0
:101ea400008060000000e000020032001e007800a4
:101eb4003f0007001e007800b008900000082000d2
:101ec400008060000000e00005003a001e00780079
:101ed40030089000640060000000e0001e00320042
:101ee4001e0078006008900050019000b1ff2f00a0
:101ef40081006100510098001e0078006008900085
:101f040050019000d1ff2f00810061005100980022
:101f14001e0078006008900000119000f1ef2f007f
:101f240081006100011098001e0078006008900094
:101f340050019000f1f72f008100610051009800da
:101f44001e0078006008900050019000f1fd2f0001
:101f540081006100510098001e0078003008900054
:101f6400620060000000e0000f0032001e007800f4
:101f740011c0b300215098001e0078006008900042
:101f840050019000d1ff2f008100610051009800a2
:101f94001e0078006008900000119000f1ef2f00ff
:101fa40081006100011098000080fa000000060022
:101fb4000200fa00000f7800410020001e007800a3
:101fc400150007001e00780040089000800078008b
:101fd4001e007800100007001e00780060089000c2
:101fe4009000780001c0a000010878001e0078006d
:101ff4008000eb00210898000080fa000000060031
:102004000200fa00000f78001e00780070089000ab
:102014000080fa00000006000400fa00000f7800b7
:10202400110798001e007800600890009e00900040
:1020340081407800e7c060008180fb00e780600099
:10204400c808dd0090017800f28f2f000281610042
:102054008280700001087800000000001e007800f3
:1020640060089000100078004500de0067406000c2
:102074008080fb001e009000808f5000f7ff3a0024
:102084000080fa00000006000c00fa001007980017
:1020940021079800320798004307980054079800d6
:1020a4001e009000e30f5000020036000000eb0019
:1020b4008d0037001e009000f400b9008000780005
:1020c40000402700008f40001e007800a117210067
:1020d400410098001e007800011e210011009800a4
:1020e4001e007800a11f2100310098001e00780016
:1020f400c11c2100210098001e0078002118210035
:10210400010878001e007800612121005100980028
:102114001e00780041222100610098001e00780012
:102124008000eb00010898001e009000e10f5000b1
:1021340018003200e10f500005003900e20f500092
:102144001f003200e30f5000280032002b0037003c
:102154001e0078000122200071009800202ea900a2
:10216400204ea80051348000f00f2c000080600045
:102174000080a000503488002136800000f82f0031
:102184008080600020032000010070002036880059
:102194001c0037001e007800012320007100980005
:1021a40021aea8003136800000f82f008080600046
:1021b4005003200001007000303688001100370001
:1021c4001e0078000125200071009800214ea8000f
:1021d400b136800000f82f008080600030032000ba
:1021e40001007000b0368800060037001e00780039
:1021f400012b200071009800020037000000eb0062
:10220400390037001e00780070009000de00900056
:10221400410098001e007800700090008000eb00e0
:10222400010878001e00780070009000ae00900055
:1022340081407800e3c060008180fb00e38060009f
:10224400818040009001780092ff2f00028161009c
:1022540082807000010878001e00780070009000f1
:10226400be00900081407800e1c060008180fb00e6
:10227400e180600090017800e2ff2f00028161009c
:1022840082807000010878001e00780070009000c1
:10229400ce00900081407800e1c060008180fb00a6
:1022a400e1806000c308dd009001780072ff2f0018
:1022b4000281610082807000010878001e007800ad
:1022c400700090009000780001f0a00001087800f0
:1022d4001e007800700090009000900001a0a00003
:1022e400110098001e0078000080fa00000006002b
:1022f4000200fa00000f78000080fa0000000600d7
:102304000400fa00100798009e009000010f780066
:102314001e007800700090001000900061006000c2
:102324000000e000050032001e00780070009000fc
:10233400b00090001e007800110898001e0078007c
:1023440070009000900090001e0078000108980032
:102354001e00780070009000100090006200600081
:102364000000e000060032001e00780070009000bb
:1023740010019000d1ff2f0081006100110098002e
:102384001e00780010089000004078000080fa00d9
:10239400000006000400fa00000f780021479800ae
:1023a4001e00780070009000ae4090008180fb0019
:1023b400210098000080fa00000006000200fa00e4
:1023c400000f78001e00780070009000100090004c
:1023d4006100600000f0a7000000ea000000ea00cd
:1023e4004f00de00004078000080fa000000060084
:1023f4000200fa00000f78001e00780070009000c0
:1024040090009000001020000080600000f0a70001
:102414000000ea000000ea004f00de0000407800ff
:102424000080fa00000006000200fa00000f7800a5
:102434001e007800000890006e0060000080fa0022
:10244400000006000400fa00100798009e009000a7
:10245400010f78001e00780070009000900090003a
:102464001e007800010898001e007800700090009b
:1024740010019000d1ff2f0081006100110098002d
:102484001e007800700090001001900071ff2f0072
:1024940081006100110098001e0078007000900017
:1024a40010019000b1ff2f0081006100110098001d
:1024b4000080fa00000006000600fa00881f780079
:1024c400000f780012079800230798001e00780078
:1024d400700490001e019000ae0190004418dd00cd
:1024e400cc10de00810070004410dd000001be004d
:1024f400000020004138200064f907000000780043
:102504000000e900400498004f0478000080fa00bd
:10251400000006000000fa00213a800000fe2f00af
:10252400008060000010a000203a8800213a80005a
:10253400f0f32f0000806000203a8800313a8000d8
:1025440000e02f0080806000e003200001007000a4
:10255400303a88003200200080072000a1092000c2
:1025640033742000804978008149780082497800da
:102574001200200060042000710520002374200054
:10258400804978008149780082497800113a8000b6
:10259400000027008080600000002300808f50002e
:1025a400faff3a00113a8000000220000080600027
:1025b4000000e000fbff32006e2eef00707380001d
:1025c4007072880070728000f0718800f071800071
:1025d4007071880070718000f0708800f070800065
:1025e40070708800148ea900108ea900168ea900a0
:1025f400f1708000f0fe2f0000806000f070880011
:102604001a8ea9001c8ea900050ea900010ea900ae
:10261400070ea90071708000f0ef2f0000806000a9
:10262400707088000b0ea9000d0ea900452ea9009c
:10263400412ea900472ea90071728000f0df2f00ff
:1026440000806000707288004b2ea9004d2ea900f6
:10265400058ea900018ea900078ea9007170800063
:10266400f0ff2e0000806000707088000b8ea900bf
:102674000d8ea900450ea900410ea900470ea90020
:1026840071728000f0ef2f0000806000707288008b
:102694004b0ea9004d0ea900146ea900106ea800df
:1026a400166ea900f170800070ff2f00008060009a
:1026b400f07088001a6ea9001c6ea900144ea900bf
:1026c400104ea900164ea900f1708000b0ff2f0033
:1026d40000806000f07088001a4ea9001c4ea9000a
:1026e40045cea90041cea90047cea9007172800051
:1026f400f0ff2b0000806000707288004bcea900b0
:102704004dcea900440ea900400ea900460ea90012
:1027140071728000e0ff2f000080600070728800fa
:102724004a0ea9004c0ea900052ea900012ea900ed
:10273400072ea90071708000f0df2f000080600078
:10274400707088000b2ea9000d2ea900048ea9001c
:10275400008ea900068ea90071708000f0fe2f0083
:1027640000806000707088000a8ea9000c8ea90099
:10277400248ea900208ea800268ea90071718000e5
:10278400f0fe2f0000806000707188002a8ea9007e
:102794002c8ea900240ea900200ea900260ea90043
:1027a40071718000e0ff2f0000806000707188006c
:1027b4002a0ea9002c0ea900554ea900514ea800be
:1027c400574ea900f1728000f0bf2f000080600016
:1027d400f07288005b4ea9005d4ea900552ea90039
:1027e400512ea900572ea900f1728000f0df2f00ae
:1027f40000806000f07288005b2ea9005d2ea900a5
:10280400f40120008001eb000001eb008000eb00ec
:102814000000eb001cfe070010818800150020005a
:10282400840020008001eb00022a2000112a2000ed
:102834000000eb005ef90700208188008002eb00b5
:10284400840020008001eb00b2002000a1002000e1
:102854001000200056f90700308188006ecea800d1
:102864006eeea8004feea8004faea8002203a90008
:1028740011198000f0cf2f0000806000101988002b
:1028840028e3a8002343a8002e63a8002e43a80031
:1028940031e3a80031a3a8001119800030f82f00fb
:1028a40000806000c000b300101988003303a90041
:1028b4002223a8002143a80011198000f0ff210061
:1028c400008060001019880025e3a90000c0eb0017
:1028d40024e3b70001198000f0cf2f0000806000ce
:1028e400001988002043a8002083a9000119800052
:1028f400000e2000010070000019880021198000da
:10290400f00f2e0080806000007021000100700034
:102914002019880021e3a80021e1a9002021a900b1
:1029240020c1a90001098000f0fc2f000080600094
:10293400000988001821ef0070662e00e008880066
:1029440021e1a8000080fa00000006001600fa0049
:10295400007d2000100798000040eb0040479800dd
:10296400d30007000004a2000004e00005003200c8
:10297400f08080000041eb008040eb00a8030700da
:102984009e00370045cea800440ea8000a24a900e2
:102994000a25a9002081800031fd0700eb03070010
:1029a400308180002efd07000230ef0045cea900e3
:1029b400440ea90001003700000000004e409000c2
:1029c4000004e0001b003a00010037000000000092
:1029d40050208000620060000000e0000600320029
:1029e40010c0b3004047980040062000100798002c
:1029f4000230ef000f0037005028800062006000b2
:102a04000000e0000600320020c0b30040479800f8
:102a140040062000100798000230ef000500370040
:102a24009e00900010808000808f5000e7ff3100ee
:102a3400000000004e409000e14f50002f003a008b
:102a44002081800006fd0700208180008afc0700a9
:102a54000004e00029003200208180001efc0700f1
:102a64003007980020818000ed004700820020009c
:102a7400cffb070068004700800078003e0090000c
:102a84002b040700680047000041eb008040eb0086
:102a9400630307000040eb00004f78000a00370092
:102aa4001e80fb006d0040006e407800e800470087
:102ab40047040700680047000041eb008040eb003a
:102ac400570307001e4fe8001e407800e74f5000f0
:102ad400f3ff3600be00900000002100008040009b
:102ae400e800470012040700680047000041eb00bb
:102af4008040eb004a0307000230ef004e40900094
:102b0400e24f50001b003a0030818000d4fc0700e3
:102b14003081800058fc07000004e00015003200fa
:102b240030818000ed00470082002000a0fb0700f8
:102b34000040eb00004f78000a0037001e80fb00c5
:102b44006d0040006e407800e80047002004070054
:102b5400680047000041eb008040eb0030030700b1
:102b64001e4fe8001e407800e74f5000f3ff360088
:102b74000230ef009e00900010808000808f500093
:102b84008dff3100c08080000041eb008040eb00ed
:102b9400230307004e4090000080fb00e10f50002b
:102ba40003003200e20f5000060032000a00370032
:102bb400e08080000041eb008040eb001803070038
:102bc4000a003700d08080000041eb008040eb0019
:102bd40013030700050037000041eb008040eb00c1
:102be400906528000e03070000000000452ea90090
:102bf400058ea900e8020700000000000080fa002a
:102c0400000006000200fa00290007000004e000aa
:102c14002100320045cea800440ea800052ea800cd
:102c2400048ea8005403070045cea900440ea90051
:102c34000000eb00000f7800060037007d0307005a
:102c44000041eb008040eb0020662800f4020700fe
:102c54001e0fe8001e007800e40f5000f7ff340058
:102c640045cea800440ea800052ea900048ea90094
:102c7400452ea900058ea9006203070045cea900d0
:102c8400440ea900008180000041eb008040eb006d
:102c9400e302070004003700f08080000041eb00ed
:102ca4008040eb00de0207000080fa00000006000e
:102cb4000000fa000dd0bf000044b2000004e000a0
:102cc40011003a00452ea900058ea8004d03070007
:102cd4000dd0bf00704060000004e00008003a001e
:102ce4000dd0bf000042b2000004e00004003a002e
:102cf400452ea800058ea8004203070002003700f5
:102d040010c0b3000d0037000dd0bf00704060004c
:102d14000004e00008003a000dd0bf000042b200f9
:102d24000004e00004003a00452ea900058ea90025
:102d34000040eb000100370010c0b3000080fa002f
:102d4400000006001400fa0020582800000f780044
:102d5400b058280010079800c05928002007980090
:102d6400f05a280030079800805b2800400798003c
:102d7400c05c280050079800205e28006007980077
:102d8400c05e280070079800705f2800000f98004c
:102d940040602800100f9800240ea80001030700cb
:102da400108180000280200073002000c2fd070013
:102db4001081800052fd070012c0b30011c0b3009f
:102dc4001e00780096020700b20007000004a2006b
:102dd4000004e000510032001081800002582200fb
:102de40003002000b4fd070012c0b30011c0b300fb
:102df4001e0078008a020700a60007000004a20053
:102e04000004e0001c0032001081800002602900f0
:102e140003002000a8fd070012c0b30011c0b300d6
:102e24001e0078007e0207009a0007000004a2003a
:102e34000004e000100032001081800002202c0009
:102e4400130020009cfd070012c0b30011c0b300a2
:102e54001e007800720207008e0007000004a20022
:102e64000004e00004003200240ea9004a02070016
:102e74000040eb008500370012c0b30011c0b3005e
:102e84002e00900066020700c602070012c0b300bd
:102e940011c0b3001e08900061020700c1020700c0
:102ea400240ea900bf020700240ea800bd020700db
:102eb4001081800002802000730020007efd070046
:102ec400108180000efd070012c0b30011c0b300d2
:102ed4001e007800520207006e0007000004a200e2
:102ee4000004e00004003200240ea9002a020700b6
:102ef4000040eb00650037001e0090002c02070024
:102f04000004a2000004e00004003200240ea90022
:102f1400210207000040eb005c00370012c0b30040
:102f240011c0b3003e0090003d02070059000700a5
:102f34000004a2000004e0000300320016020700af
:102f44000040eb00510037004e00900018020700cb
:102f54000004a2000004e0001c00320012c0b30010
:102f640011c0b3005e0090002d0207008d0207001f
:102f740010818000e2fc070012c0b30011c0b3004e
:102f84003e00900026020700420007000004a20051
:102f94000004e00004003200240ea900fe01070032
:102fa4000040eb00390037004e009000000207009b
:102fb4000004a2000004e00004003200240ea90072
:102fc400f50107000040eb003000370012c0b300e9
:102fd40011c0b3006e009000110207002d0007001d
:102fe4000004a2000004e00004003200240ea90042
:102ff400e90107000040eb00240037007e00900048
:10300400eb0107000004a2000004e0001c003200f1
:1030140012c0b30011c0b3000e08900000020700f4
:103024006002070010818000b5fc070012c0b300e5
:1030340011c0b3006e009000f901070015000700ed
:103044000004a2000004e00004003200240ea900e1
:10305400d10107000040eb000c0037007e00900017
:10306400d30107000004a2000004e00004003200c1
:10307400240ea900c80107000040eb00030037003c
:10308400240ea900c401070010c0b3000080fa0098
:10309400000006000200fa000230ef002830ef00c2
:1030a400010037000000000010818000c3fc07000d
:1030b4000004e0001300320041818000100320006e
:1030c400808f500003003a00b30107000040eb007a
:1030d400160037001081800089fc0700004f78003b
:1030e4004081800001492700008040001e4878008c
:1030f400408180000000e800408188000230ef0039
:10310400e9ff370011808000401f2000808f5000ad
:10311400e4ff3600408180000000e00002003a0035
:103124000040eb000100370010c0b3000080fa003b
:10313400000006000e00fa0050079800610798008e
:103144000000eb00100798000040eb004047980097
:10315400270037004e4090000080fb00e166280005
:1031640000804000104078000000fb000000400098
:10317400de00900000804000100f780010c0b30003
:1031840050479800110037004e4090008080fb00ab
:103194005e4090000080fb0000804000e166280053
:1031a40000804000104078000000fb000000400058
:1031b400de00900000804000100078001e0f6000c8
:1031c4005e4090000040e800504798005e40900048
:1031d400e34f5000ecff36001e0090001e0070000c
:1031e400100798004e40900064404000404798000b
:1031f400ce409000b0c3b30080cf5000d5ff36005e
:10320400ee0090001e009000008f68001e00780001
:103214000000e0002e0032001e0090001e0060003e
:10322400300798006e0090001e01600002007800d4
:103234000080ea008180ea00400798000040eb002b
:10324400404798001f0037004e4090000080fb006c
:1032540000004000de009000808040004e4090005e
:103264000080fb00000040005e019000000041006f
:10327400100178003e009000020070008008780081
:103284004e4090000080fb0000004000de009000f3
:10329400808040004e4090000080fb000000400011
:1032a4005e01900000004100100178004e00900083
:1032b40000006100800878004e4090000040e80063
:1032c400404798004e409000e54f5000deff360026
:1032d4001e0090000080fa00000006000a00fa00b8
:1032e40030079800014f98000040eb001047980009
:1032f4000040eb0020479800250037002e40900046
:103304000080fb00e1662800008040001040780047
:103314000000fb00be00900000804000104f7800c9
:1033240010c0b30030479800100037002e409000c2
:103334008080fb003e4090000080fb000080400045
:10334400e166280000804000104078000000fb0087
:10335400be00900000804000104078001e4f6000c6
:103364003e4090000040e800304798003e40900006
:10337400e34f5000edff36001e4090001e407000e9
:10338400104798002e409000644040002047980069
:10339400ae409000b0c3b30080cf5000d7ff3600da
:1033a4008e4890001e40900000cf68001e407800b8
:1033b4000004e000280032001e4090001e4060001f
:1033c400404798000e4890001e4060000080ea00cc
:1033d400504798000040eb00204798001b0037003e
:1033e4002e4090000080fb00be0090000080400052
:1033f400ae4090008180fb003e01900081004100be
:1034040011417800ce40900081407100014878005d
:103414002e4090000080fb00be0090000080400021
:10342400ae4090008180fb003e019000810041008d
:1034340011417800de40900081406100014878002d
:103444002e4090000040e800204798002e40900055
:10345400e54f5000e2ff36001e4090000080fa0065
:10346400000006000200fa0091708000e88060000d
:103474000100e00005003a001e417800e1cfb300ee
:1034840081406100014f7800030037009e407800be
:103494000104a000014f78009272800001402000d6
:1034a400810061000100e000040032009e407800c9
:1034b4000114a000014f7800040037001e41780079
:1034c400d1cfb30081406100014f780011718000b9
:1034d400f08060000100e000040032009e407800ab
:1034e4000134a000014f7800040037001e41780029
:1034f40071cfb30081406100014f7800a280800049
:1035040051742000810f5100040036009e40780061
:103514000164a000014f7800040037001e417800c8
:10352400f1cbb30081406100014f7800b28080008c
:1035340051742000810f5100040036009e40780031
:103544000174a000014f7800030037009e4078000a
:103554000174a100014f780082808000814d200019
:10356400810f5100040036009e4078000144a00001
:10357400014f7800040037001e417800f1ceb300fb
:1035840081406100014f780092808000814d2000cd
:10359400810f5100040036009e4078000154a000c1
:1035a400014f7800040037001e417800f1cdb300cc
:1035b40081406100014f78001e4878000080fa00c5
:1035c400000006000200fa00a0018000408088008c
:1035d4009001800050808800cefb07000c10a900e9
:1035e40045cea900440ea900148ea900050ea90019
:1035f400052ea900048ea900552ea800240ea900aa
:10360400144ea900450ea900058ea900452ea90057
:10361400c1e8a9007142800080ff2f000080600093
:103624000020a000704288000388a9002388a80015
:103634000168a9002168a8000000eb00000f7800d1
:1036440007003700148ea800050ea900d500070056
:10365400148ea900050ea800d20007001e0fe80072
:103664001e007800e40f5000f6ff36002168a90020
:10367400148ea800050ea80005003700050ea90049
:10368400148ea800df000700148ea800050ea80001
:10369400acfd07000004a2000004e000f7ff3a00bc
:1036a400148ea900050ea9002168a8001300370094
:1036b4002080800031808000823e200003002000b2
:1036c400f2f4070080007800b0368400808f500048
:1036d40001003900144ea900217080000010200060
:1036e400008060000000e00002003a00050ea8001f
:1036f40001003700050ea900aa00070050818000d0
:10370400e20f5000eaff3a000430ef000630ef0009
:1037140060818000260007000004e00006003200fb
:10372400148ea800050ea80088fc0700148ea900ba
:10373400050ea9000e003700708180001c000700f0
:103744000004e00006003200148ea800050ea80054
:103754002cfd0700148ea900050ea90004003700f3
:1037640012c0b3008040eb00004927002c00070082
:103774000900070000000000e0ff37000000fa0025
:10378400220320008000eb0000492700cff407004b
:103794000080fa00000006000000fa002a30ef0062
:1037a4002830ef00f5ff07000080fa000000060053
:1037b4000600fa00200798002e009000caf40700c3
:1037c400100798000040eb00004f78000d00370010
:1037d4001e80fb00014927000080400090407800d3
:1037e4001e80fb002e019000000041001040780074
:1037f40080cf5000020032000040eb00060037008a
:103804001e4fe8009e80fb001e009000808f500039
:10381400efff390010c0b3000080fa00000006007a
:103824000800fa0020079800614798007247980042
:103834000040eb00004f78000e003700000000004d
:1038440010818000eafa07000004a2000004e000ee
:10385400fbff3a001e80fb00ae0090000080400099
:10386400104078008040780010818000c9fa070079
:103874001e4fe8001e80fb00ae0090000080400058
:10388400104078000004e000ecff3a007e40900015
:103894000004e000160032000000000010818000e7
:1038a400d3fa07000004a2000004e000fbff3a0082
:1038b400d0c0b300104798009e4090001081800053
:1038c400b4fa07000000000010818000c8fa070065
:1038d4000004a2000004e000fbff3a00a0c0b30013
:1038e40020479800ae40900010818000a9fa07009c
:1038f4006e4090000004e000010032009fff0700ca
:103904000080fa00000006000200fa00004f780070
:103914000000000010818000b5fa07000004a20036
:103924000004e000fbff3a009e4078001081800014
:1039340098fa07000080fa00000006000000fa0070
:103944000040eb000080fa00000006000200fa00cc
:103954000040eb00004f78000200370054000700dd
:103964001e4fe8001e407800e74f5000fbff360072
:103974000080fa00000006000200fa000000eb00dc
:10398400000f780002003700f0ff07001e0fe80068
:103994001e007800e90f5000fbff36000080fa009b
:1039a400000006000200fa000000eb00000f78009f
:1039b40002003700e5ff07001e0fe8003006200074
:1039c4009e007800808f5000faff36000080fa00d5
:1039d400000006000200fa000000eb00000f78006f
:1039e40002003700d9ff07001e0fe800700c20000a
:1039f4009e007800808f5000faff36000080fa00a5
:103a0400000006000200fa000000eb00000f78003e
:103a140002003700cdff07001e0fe800301f200012
:103a24009e007800808f5000faff36000080fa0074
:103a3400000006000200fa000000eb00000f78000e
:103a440002003700c1ff07001e0fe800703e20008f
:103a54009e007800808f5000faff36000080fa0044
:103a6400000006000200fa000000eb00000f7800de
:103a740002003700b5ff07001e0fe800f07c2000ad
:103a84009e007800808f5000faff36000080fa0014
:103a9400000006000000fa000a0007000900070001
:103aa40008000700070007000080fa000000060075
:103ab4000000fa0003000700020007000080fa007b
:103ac400000006000000fa0060e62000010020006b
:103ad4007e0007000080fa00000006000000fa00e3
:103ae400a003200001002000780007000080fa00f5
:103af400000006000200fa00004f78001e40780023
:103b0400e94f500004003c001e4078000043b00020
:103b1400004f7800030037001e4078007043b00067
:103b2400004f78001e4078000080fa000000060074
:103b34000400fa00881f7800000f7800110798002d
:103b44001e009000640040008040eb0001487800b3
:103b54001e009000630440001e00780000407800be
:103b64006f406000e3ff0700004c78001e009000e7
:103b74000084e8001e0078004400de000040780065
:103b84006f406000dbff0700004c78001e009000cf
:103b94000004e8001e0078004800de0000407800c1
:103ba4006f406000d3ff0700004c78001e007800cf
:103bb4004c00de0000407800ceff07009e0090001d
:103bc400804878004f0478000080fa000000060066
:103bd4000400fa00881f7800004f7800110798004d
:103be4001e0090000080e8008040eb00014878004f
:103bf4001e0090000004e8001e4078006f40600042
:103c0400bcff0700004c78001e80fb004400de006f
:103c140000407800b7ff07009e00900080487800bd
:0c3c24004f0478000080fa000000060049
:020000040000fa
:103c30009074000032000000800000002810000096
:103c400004000000800000005074000040000000ec
:103c500080000000007000000002000080000000f2
:103c6000007200000002000080000000c27400002a
:103c70000600000080000000001000001800000096
:103c8000800000002c1000000400000082000000f2
:103c9000aa86bf0086000000221000000600000077
:103ca00080000000181000000a00000082000000e0
:103cb0000e861a00862386002c86410086000000ae
:103cc00000740000500000008000000000000000b0
:020000040000fa
:103cd000f03fb1000180b10006003500ee0309009d
:103ce00000000000403fb1000180b100fbff3d003b
:103cf0001000b000203fb000020035000080090035
:083d00000000000000000600b5
:020000040000fa
:02000004000af0
:04afe000cdff0000a1
:020000040000fa
:02000004000af0
:04afe400dfff00008b
:020000040000fa
:02000004000af0
:04afe8006aff0000fc
:020000040000fa
:02000004000af0
:04afec005cff000006
:020000040000fa
:02000004000af0
:04aff00038ff000026
:020000040000fa
:02000004000af0
:04aff400ffff00005b
:00000001FF
